{
  "_format": "hh-sol-artifact-1",
  "contractName": "Gou_Staking",
  "sourceName": "contracts/Gou_staking.sol",
  "abi": [
    {
      "inputs": [
        {
          "internalType": "contract ERC20",
          "name": "_gou",
          "type": "address"
        },
        {
          "internalType": "uint256",
          "name": "_apy",
          "type": "uint256"
        }
      ],
      "stateMutability": "nonpayable",
      "type": "constructor"
    },
    {
      "anonymous": false,
      "inputs": [
        {
          "indexed": true,
          "internalType": "address",
          "name": "previousOwner",
          "type": "address"
        },
        {
          "indexed": true,
          "internalType": "address",
          "name": "newOwner",
          "type": "address"
        }
      ],
      "name": "OwnershipTransferred",
      "type": "event"
    },
    {
      "inputs": [],
      "name": "apy",
      "outputs": [
        {
          "internalType": "uint256",
          "name": "",
          "type": "uint256"
        }
      ],
      "stateMutability": "view",
      "type": "function"
    },
    {
      "inputs": [],
      "name": "claimRewards",
      "outputs": [],
      "stateMutability": "nonpayable",
      "type": "function"
    },
    {
      "inputs": [
        {
          "internalType": "uint256",
          "name": "_amount",
          "type": "uint256"
        }
      ],
      "name": "depositTokens",
      "outputs": [],
      "stateMutability": "nonpayable",
      "type": "function"
    },
    {
      "inputs": [],
      "name": "gou",
      "outputs": [
        {
          "internalType": "contract ERC20",
          "name": "",
          "type": "address"
        }
      ],
      "stateMutability": "view",
      "type": "function"
    },
    {
      "inputs": [
        {
          "internalType": "address",
          "name": "",
          "type": "address"
        }
      ],
      "name": "isStaking",
      "outputs": [
        {
          "internalType": "bool",
          "name": "",
          "type": "bool"
        }
      ],
      "stateMutability": "view",
      "type": "function"
    },
    {
      "inputs": [],
      "name": "issueRewards",
      "outputs": [],
      "stateMutability": "nonpayable",
      "type": "function"
    },
    {
      "inputs": [
        {
          "internalType": "address",
          "name": "",
          "type": "address"
        }
      ],
      "name": "lastIssueTime",
      "outputs": [
        {
          "internalType": "uint256",
          "name": "",
          "type": "uint256"
        }
      ],
      "stateMutability": "view",
      "type": "function"
    },
    {
      "inputs": [],
      "name": "owner",
      "outputs": [
        {
          "internalType": "address",
          "name": "",
          "type": "address"
        }
      ],
      "stateMutability": "view",
      "type": "function"
    },
    {
      "inputs": [],
      "name": "renounceOwnership",
      "outputs": [],
      "stateMutability": "nonpayable",
      "type": "function"
    },
    {
      "inputs": [
        {
          "internalType": "address",
          "name": "",
          "type": "address"
        }
      ],
      "name": "rewards",
      "outputs": [
        {
          "internalType": "uint256",
          "name": "",
          "type": "uint256"
        }
      ],
      "stateMutability": "view",
      "type": "function"
    },
    {
      "inputs": [
        {
          "internalType": "address",
          "name": "",
          "type": "address"
        }
      ],
      "name": "stakedTime",
      "outputs": [
        {
          "internalType": "uint256",
          "name": "",
          "type": "uint256"
        }
      ],
      "stateMutability": "view",
      "type": "function"
    },
    {
      "inputs": [
        {
          "internalType": "uint256",
          "name": "",
          "type": "uint256"
        }
      ],
      "name": "stakers",
      "outputs": [
        {
          "internalType": "address",
          "name": "",
          "type": "address"
        }
      ],
      "stateMutability": "view",
      "type": "function"
    },
    {
      "inputs": [
        {
          "internalType": "address",
          "name": "",
          "type": "address"
        }
      ],
      "name": "stakingBalance",
      "outputs": [
        {
          "internalType": "uint256",
          "name": "",
          "type": "uint256"
        }
      ],
      "stateMutability": "view",
      "type": "function"
    },
    {
      "inputs": [],
      "name": "totalStaked",
      "outputs": [
        {
          "internalType": "uint256",
          "name": "",
          "type": "uint256"
        }
      ],
      "stateMutability": "view",
      "type": "function"
    },
    {
      "inputs": [
        {
          "internalType": "address",
          "name": "newOwner",
          "type": "address"
        }
      ],
      "name": "transferOwnership",
      "outputs": [],
      "stateMutability": "nonpayable",
      "type": "function"
    },
    {
      "inputs": [],
      "name": "unstake",
      "outputs": [],
      "stateMutability": "nonpayable",
      "type": "function"
    }
  ],
  "bytecode": "0x60806040523480156200001157600080fd5b5060405162001e1638038062001e16833981810160405281019062000037919062000241565b620000576200004b620000bc60201b60201c565b620000c460201b60201c565b81600960006101000a81548173ffffffffffffffffffffffffffffffffffffffff021916908373ffffffffffffffffffffffffffffffffffffffff160217905550670de0b6b3a764000081620000ae9190620002b7565b600281905550505062000318565b600033905090565b60008060009054906101000a900473ffffffffffffffffffffffffffffffffffffffff169050816000806101000a81548173ffffffffffffffffffffffffffffffffffffffff021916908373ffffffffffffffffffffffffffffffffffffffff1602179055508173ffffffffffffffffffffffffffffffffffffffff168173ffffffffffffffffffffffffffffffffffffffff167f8be0079c531659141344cd1fd0a4f28419497f9722a3daafe3b4186f6b6457e060405160405180910390a35050565b600080fd5b600073ffffffffffffffffffffffffffffffffffffffff82169050919050565b6000620001ba826200018d565b9050919050565b6000620001ce82620001ad565b9050919050565b620001e081620001c1565b8114620001ec57600080fd5b50565b6000815190506200020081620001d5565b92915050565b6000819050919050565b6200021b8162000206565b81146200022757600080fd5b50565b6000815190506200023b8162000210565b92915050565b600080604083850312156200025b576200025a62000188565b5b60006200026b85828601620001ef565b92505060206200027e858286016200022a565b9150509250929050565b7f4e487b7100000000000000000000000000000000000000000000000000000000600052601160045260246000fd5b6000620002c48262000206565b9150620002d18362000206565b9250817fffffffffffffffffffffffffffffffffffffffffffffffffffffffffffffffff04831182151516156200030d576200030c62000288565b5b828202905092915050565b611aee80620003286000396000f3fe608060405234801561001057600080fd5b50600436106101005760003560e01c8063715018a611610097578063b0370e0c11610066578063b0370e0c1461028b578063dd49756e14610295578063f2fde38b146102b1578063fd5e6dd1146102cd57610100565b8063715018a614610227578063817b1cd21461023157806387d871a61461024f5780638da5cb5b1461026d57610100565b8063372500ab116100d3578063372500ab1461019f5780633bcfc4b8146101a957806345bc78ab146101c75780636f49712b146101f757610100565b806306709555146101055780630700037d14610135578063203e7f30146101655780632def662014610195575b600080fd5b61011f600480360381019061011a91906112ed565b6102fd565b60405161012c9190611333565b60405180910390f35b61014f600480360381019061014a91906112ed565b610315565b60405161015c9190611333565b60405180910390f35b61017f600480360381019061017a91906112ed565b61032d565b60405161018c9190611333565b60405180910390f35b61019d610345565b005b6101a76106d6565b005b6101b1610945565b6040516101be9190611333565b60405180910390f35b6101e160048036038101906101dc91906112ed565b61094b565b6040516101ee9190611333565b60405180910390f35b610211600480360381019061020c91906112ed565b610963565b60405161021e9190611369565b60405180910390f35b61022f610983565b005b610239610997565b6040516102469190611333565b60405180910390f35b61025761099d565b60405161026491906113e3565b60405180910390f35b6102756109c3565b604051610282919061140d565b60405180910390f35b6102936109ec565b005b6102af60048036038101906102aa9190611454565b610be3565b005b6102cb60048036038101906102c691906112ed565b611032565b005b6102e760048036038101906102e29190611454565b6110b6565b6040516102f4919061140d565b60405180910390f35b60056020528060005260406000206000915090505481565b60076020528060005260406000206000915090505481565b60066020528060005260406000206000915090505481565b6064600860006103536110f5565b73ffffffffffffffffffffffffffffffffffffffff1673ffffffffffffffffffffffffffffffffffffffff1681526020019081526020016000205410156103cf576040517f08c379a00000000000000000000000000000000000000000000000000000000081526004016103c6906114de565b60405180910390fd5b600460006103db6110f5565b73ffffffffffffffffffffffffffffffffffffffff1673ffffffffffffffffffffffffffffffffffffffff16815260200190815260200160002060009054906101000a900460ff16610462576040517f08c379a00000000000000000000000000000000000000000000000000000000081526004016104599061154a565b60405180910390fd5b6000600860006104706110f5565b73ffffffffffffffffffffffffffffffffffffffff1673ffffffffffffffffffffffffffffffffffffffff1681526020019081526020016000205490506000600860006104bb6110f5565b73ffffffffffffffffffffffffffffffffffffffff1673ffffffffffffffffffffffffffffffffffffffff16815260200190815260200160002081905550806001600082825461050b9190611599565b925050819055506000600560006105206110f5565b73ffffffffffffffffffffffffffffffffffffffff1673ffffffffffffffffffffffffffffffffffffffff1681526020019081526020016000208190555060006006600061056c6110f5565b73ffffffffffffffffffffffffffffffffffffffff1673ffffffffffffffffffffffffffffffffffffffff168152602001908152602001600020819055506000600460006105b86110f5565b73ffffffffffffffffffffffffffffffffffffffff1673ffffffffffffffffffffffffffffffffffffffff16815260200190815260200160002060006101000a81548160ff021916908315150217905550600960009054906101000a900473ffffffffffffffffffffffffffffffffffffffff1673ffffffffffffffffffffffffffffffffffffffff1663a9059cbb61064f6110f5565b670de0b6b3a76400008461066391906115cd565b6040518363ffffffff1660e01b8152600401610680929190611627565b602060405180830381600087803b15801561069a57600080fd5b505af11580156106ae573d6000803e3d6000fd5b505050506040513d601f19601f820116820180604052508101906106d2919061167c565b5050565b6000600760006106e46110f5565b73ffffffffffffffffffffffffffffffffffffffff1673ffffffffffffffffffffffffffffffffffffffff168152602001908152602001600020541161075f576040517f08c379a0000000000000000000000000000000000000000000000000000000008152600401610756906116f5565b60405180910390fd5b601e6005600061076d6110f5565b73ffffffffffffffffffffffffffffffffffffffff1673ffffffffffffffffffffffffffffffffffffffff16815260200190815260200160002054426107b39190611599565b10156107f4576040517f08c379a00000000000000000000000000000000000000000000000000000000081526004016107eb90611787565b60405180910390fd5b6000600760006108026110f5565b73ffffffffffffffffffffffffffffffffffffffff1673ffffffffffffffffffffffffffffffffffffffff16815260200190815260200160002054905060006007600061084d6110f5565b73ffffffffffffffffffffffffffffffffffffffff1673ffffffffffffffffffffffffffffffffffffffff16815260200190815260200160002081905550600960009054906101000a900473ffffffffffffffffffffffffffffffffffffffff1673ffffffffffffffffffffffffffffffffffffffff1663a9059cbb6108d16110f5565b836040518363ffffffff1660e01b81526004016108ef929190611627565b602060405180830381600087803b15801561090957600080fd5b505af115801561091d573d6000803e3d6000fd5b505050506040513d601f19601f82011682018060405250810190610941919061167c565b5050565b60025481565b60086020528060005260406000206000915090505481565b60046020528060005260406000206000915054906101000a900460ff1681565b61098b6110fd565b610995600061117b565b565b60015481565b600960009054906101000a900473ffffffffffffffffffffffffffffffffffffffff1681565b60008060009054906101000a900473ffffffffffffffffffffffffffffffffffffffff16905090565b6109f46110fd565b600042905060005b600380549050811015610bdf57600060038281548110610a1f57610a1e6117a7565b5b9060005260206000200160009054906101000a900473ffffffffffffffffffffffffffffffffffffffff1690506000600660008373ffffffffffffffffffffffffffffffffffffffff1673ffffffffffffffffffffffffffffffffffffffff1681526020019081526020016000205484610a999190611599565b9050620151808110610bca57600061016d600860008573ffffffffffffffffffffffffffffffffffffffff1673ffffffffffffffffffffffffffffffffffffffff168152602001908152602001600020546064600254610af99190611805565b610b0391906115cd565b610b0d9190611805565b905060006201518083610b209190611805565b90508082610b2e91906115cd565b600760008673ffffffffffffffffffffffffffffffffffffffff1673ffffffffffffffffffffffffffffffffffffffff1681526020019081526020016000206000828254610b7c9190611836565b9250508190555085600660008673ffffffffffffffffffffffffffffffffffffffff1673ffffffffffffffffffffffffffffffffffffffff1681526020019081526020016000208190555050505b50508080610bd79061188c565b9150506109fc565b5050565b60638111610c26576040517f08c379a0000000000000000000000000000000000000000000000000000000008152600401610c1d90611921565b60405180910390fd5b80670de0b6b3a7640000600960009054906101000a900473ffffffffffffffffffffffffffffffffffffffff1673ffffffffffffffffffffffffffffffffffffffff166370a08231610c766110f5565b6040518263ffffffff1660e01b8152600401610c92919061140d565b60206040518083038186803b158015610caa57600080fd5b505afa158015610cbe573d6000803e3d6000fd5b505050506040513d601f19601f82011682018060405250810190610ce29190611956565b610cec9190611805565b1015610d2d576040517f08c379a0000000000000000000000000000000000000000000000000000000008152600401610d24906114de565b60405180910390fd5b600960009054906101000a900473ffffffffffffffffffffffffffffffffffffffff1673ffffffffffffffffffffffffffffffffffffffff166323b872dd610d736110f5565b30670de0b6b3a764000085610d8891906115cd565b6040518463ffffffff1660e01b8152600401610da693929190611983565b602060405180830381600087803b158015610dc057600080fd5b505af1158015610dd4573d6000803e3d6000fd5b505050506040513d601f19601f82011682018060405250810190610df8919061167c565b508060086000610e066110f5565b73ffffffffffffffffffffffffffffffffffffffff1673ffffffffffffffffffffffffffffffffffffffff1681526020019081526020016000206000828254610e4f9190611836565b9250508190555060046000610e626110f5565b73ffffffffffffffffffffffffffffffffffffffff1673ffffffffffffffffffffffffffffffffffffffff16815260200190815260200160002060009054906101000a900460ff1661100e574260056000610ebb6110f5565b73ffffffffffffffffffffffffffffffffffffffff1673ffffffffffffffffffffffffffffffffffffffff168152602001908152602001600020819055504260066000610f066110f5565b73ffffffffffffffffffffffffffffffffffffffff1673ffffffffffffffffffffffffffffffffffffffff16815260200190815260200160002081905550600160046000610f526110f5565b73ffffffffffffffffffffffffffffffffffffffff1673ffffffffffffffffffffffffffffffffffffffff16815260200190815260200160002060006101000a81548160ff0219169083151502179055506003610fad6110f5565b9080600181540180825580915050600190039060005260206000200160009091909190916101000a81548173ffffffffffffffffffffffffffffffffffffffff021916908373ffffffffffffffffffffffffffffffffffffffff1602179055505b80600160008282546110209190611836565b9250508190555061102f61123f565b50565b61103a6110fd565b600073ffffffffffffffffffffffffffffffffffffffff168173ffffffffffffffffffffffffffffffffffffffff1614156110aa576040517f08c379a00000000000000000000000000000000000000000000000000000000081526004016110a190611a2c565b60405180910390fd5b6110b38161117b565b50565b600381815481106110c657600080fd5b906000526020600020016000915054906101000a900473ffffffffffffffffffffffffffffffffffffffff1681565b600033905090565b6111056110f5565b73ffffffffffffffffffffffffffffffffffffffff166111236109c3565b73ffffffffffffffffffffffffffffffffffffffff1614611179576040517f08c379a000000000000000000000000000000000000000000000000000000000815260040161117090611a98565b60405180910390fd5b565b60008060009054906101000a900473ffffffffffffffffffffffffffffffffffffffff169050816000806101000a81548173ffffffffffffffffffffffffffffffffffffffff021916908373ffffffffffffffffffffffffffffffffffffffff1602179055508173ffffffffffffffffffffffffffffffffffffffff168173ffffffffffffffffffffffffffffffffffffffff167f8be0079c531659141344cd1fd0a4f28419497f9722a3daafe3b4186f6b6457e060405160405180910390a35050565b6127106001546127106112529190611599565b60646002546112619190611805565b61126b91906115cd565b6112759190611805565b6002546112829190611599565b600281905550565b600080fd5b600073ffffffffffffffffffffffffffffffffffffffff82169050919050565b60006112ba8261128f565b9050919050565b6112ca816112af565b81146112d557600080fd5b50565b6000813590506112e7816112c1565b92915050565b6000602082840312156113035761130261128a565b5b6000611311848285016112d8565b91505092915050565b6000819050919050565b61132d8161131a565b82525050565b60006020820190506113486000830184611324565b92915050565b60008115159050919050565b6113638161134e565b82525050565b600060208201905061137e600083018461135a565b92915050565b6000819050919050565b60006113a96113a461139f8461128f565b611384565b61128f565b9050919050565b60006113bb8261138e565b9050919050565b60006113cd826113b0565b9050919050565b6113dd816113c2565b82525050565b60006020820190506113f860008301846113d4565b92915050565b611407816112af565b82525050565b600060208201905061142260008301846113fe565b92915050565b6114318161131a565b811461143c57600080fd5b50565b60008135905061144e81611428565b92915050565b60006020828403121561146a5761146961128a565b5b60006114788482850161143f565b91505092915050565b600082825260208201905092915050565b7f494e53554646494349454e542042414c414e4345000000000000000000000000600082015250565b60006114c8601483611481565b91506114d382611492565b602082019050919050565b600060208201905081810360008301526114f7816114bb565b9050919050565b7f594f5520415245204e4f54205354414b494e4721212100000000000000000000600082015250565b6000611534601683611481565b915061153f826114fe565b602082019050919050565b6000602082019050818103600083015261156381611527565b9050919050565b7f4e487b7100000000000000000000000000000000000000000000000000000000600052601160045260246000fd5b60006115a48261131a565b91506115af8361131a565b9250828210156115c2576115c161156a565b5b828203905092915050565b60006115d88261131a565b91506115e38361131a565b9250817fffffffffffffffffffffffffffffffffffffffffffffffffffffffffffffffff048311821515161561161c5761161b61156a565b5b828202905092915050565b600060408201905061163c60008301856113fe565b6116496020830184611324565b9392505050565b6116598161134e565b811461166457600080fd5b50565b60008151905061167681611650565b92915050565b6000602082840312156116925761169161128a565b5b60006116a084828501611667565b91505092915050565b7f594f5520444f4e54205245574152445320544f20434c41494d21000000000000600082015250565b60006116df601a83611481565b91506116ea826116a9565b602082019050919050565b6000602082019050818103600083015261170e816116d2565b9050919050565b7f5741495420464f5220323420484f555253204245464f524520434c41494d212160008201527f2100000000000000000000000000000000000000000000000000000000000000602082015250565b6000611771602183611481565b915061177c82611715565b604082019050919050565b600060208201905081810360008301526117a081611764565b9050919050565b7f4e487b7100000000000000000000000000000000000000000000000000000000600052603260045260246000fd5b7f4e487b7100000000000000000000000000000000000000000000000000000000600052601260045260246000fd5b60006118108261131a565b915061181b8361131a565b92508261182b5761182a6117d6565b5b828204905092915050565b60006118418261131a565b915061184c8361131a565b9250827fffffffffffffffffffffffffffffffffffffffffffffffffffffffffffffffff038211156118815761188061156a565b5b828201905092915050565b60006118978261131a565b91507fffffffffffffffffffffffffffffffffffffffffffffffffffffffffffffffff8214156118ca576118c961156a565b5b600182019050919050565b7f414d4f554e54204c455353205448414e20313030000000000000000000000000600082015250565b600061190b601483611481565b9150611916826118d5565b602082019050919050565b6000602082019050818103600083015261193a816118fe565b9050919050565b60008151905061195081611428565b92915050565b60006020828403121561196c5761196b61128a565b5b600061197a84828501611941565b91505092915050565b600060608201905061199860008301866113fe565b6119a560208301856113fe565b6119b26040830184611324565b949350505050565b7f4f776e61626c653a206e6577206f776e657220697320746865207a65726f206160008201527f6464726573730000000000000000000000000000000000000000000000000000602082015250565b6000611a16602683611481565b9150611a21826119ba565b604082019050919050565b60006020820190508181036000830152611a4581611a09565b9050919050565b7f4f776e61626c653a2063616c6c6572206973206e6f7420746865206f776e6572600082015250565b6000611a82602083611481565b9150611a8d82611a4c565b602082019050919050565b60006020820190508181036000830152611ab181611a75565b905091905056fea264697066735822122011880afd1d33810b80bcc788b4ae18d1e33a1b1e5197257ab7251928531355e264736f6c63430008090033",
  "linkReferences": {},
  "deployedLinkReferences": {}
}